{
  "_format": "hh-sol-artifact-1",
  "contractName": "Demo",
  "sourceName": "contracts/events.sol",
  "abi": [
    {
      "inputs": [],
      "stateMutability": "nonpayable",
      "type": "constructor"
    },
    {
      "anonymous": false,
      "inputs": [
        {
          "indexed": true,
          "internalType": "address",
          "name": "_from",
          "type": "address"
        },
        {
          "indexed": false,
          "internalType": "uint256",
          "name": "amount",
          "type": "uint256"
        },
        {
          "indexed": false,
          "internalType": "uint256",
          "name": "_timestamp",
          "type": "uint256"
        }
      ],
      "name": "Paid",
      "type": "event"
    },
    {
      "inputs": [],
      "name": "pay",
      "outputs": [],
      "stateMutability": "payable",
      "type": "function"
    },
    {
      "inputs": [
        {
          "internalType": "address payable",
          "name": "_to",
          "type": "address"
        }
      ],
      "name": "withdraw",
      "outputs": [],
      "stateMutability": "nonpayable",
      "type": "function"
    },
    {
      "stateMutability": "payable",
      "type": "receive"
    }
  ],
  "bytecode": "0x608060405234801561001057600080fd5b50336000806101000a81548173ffffffffffffffffffffffffffffffffffffffff021916908373ffffffffffffffffffffffffffffffffffffffff1602179055506104a7806100606000396000f3fe60806040526004361061002d5760003560e01c80631b9265b81461004157806351cff8d91461004b5761003c565b3661003c5761003a610074565b005b600080fd5b610049610074565b005b34801561005757600080fd5b50610072600480360381019061006d9190610268565b6100c6565b005b3373ffffffffffffffffffffffffffffffffffffffff167fdf9a51129930649214df58f542322c245372c6f2fa6fc3c9b40d927c597cd23034426040516100bc929190610369565b60405180910390a2565b8060008054906101000a900473ffffffffffffffffffffffffffffffffffffffff1673ffffffffffffffffffffffffffffffffffffffff163373ffffffffffffffffffffffffffffffffffffffff1614610155576040517f08c379a000000000000000000000000000000000000000000000000000000000815260040161014c90610349565b60405180910390fd5b600073ffffffffffffffffffffffffffffffffffffffff168173ffffffffffffffffffffffffffffffffffffffff1614156101c5576040517f08c379a00000000000000000000000000000000000000000000000000000000081526004016101bc90610309565b60405180910390fd5b8173ffffffffffffffffffffffffffffffffffffffff166108fc479081150290604051600060405180830381858888f1935050505015801561020b573d6000803e3d6000fd5b506001801461024f576040517f08c379a000000000000000000000000000000000000000000000000000000000815260040161024690610329565b60405180910390fd5b5050565b6000813590506102628161045a565b92915050565b60006020828403121561027a57600080fd5b600061028884828501610253565b91505092915050565b600061029e601c83610392565b91506102a9826103df565b602082019050919050565b60006102c1600f83610392565b91506102cc82610408565b602082019050919050565b60006102e4601483610392565b91506102ef82610431565b602082019050919050565b610303816103d5565b82525050565b6000602082019050818103600083015261032281610291565b9050919050565b60006020820190508181036000830152610342816102b4565b9050919050565b60006020820190508181036000830152610362816102d7565b9050919050565b600060408201905061037e60008301856102fa565b61038b60208301846102fa565b9392505050565b600082825260208201905092915050565b60006103ae826103b5565b9050919050565b600073ffffffffffffffffffffffffffffffffffffffff82169050919050565b6000819050919050565b7f416464726573732073686f756c64206e6f74206265206e756c6c212100000000600082015250565b7f4c6f6769632069732062726f6b656e0000000000000000000000000000000000600082015250565b7f596f7520617265206e6f7420616e206f776e6572000000000000000000000000600082015250565b610463816103a3565b811461046e57600080fd5b5056fea26469706673582212205a57234916cbdd466e978bc8b62b3694834bda5eab140cb9b8228019dbf5233f64736f6c63430008040033",
  "linkReferences": {},
  "deployedLinkReferences": {}
}