{
  "_format": "hh-sol-artifact-1",
  "contractName": "funcDemo",
  "sourceName": "contracts/functions.sol",
  "abi": [
    {
      "inputs": [],
      "name": "getBalance",
      "outputs": [
        {
          "internalType": "uint256",
          "name": "",
          "type": "uint256"
        }
      ],
      "stateMutability": "view",
      "type": "function"
    },
    {
      "inputs": [],
      "name": "getBalance1",
      "outputs": [
        {
          "internalType": "uint256",
          "name": "balance",
          "type": "uint256"
        }
      ],
      "stateMutability": "view",
      "type": "function"
    },
    {
      "inputs": [],
      "name": "getMessage",
      "outputs": [
        {
          "internalType": "string",
          "name": "",
          "type": "string"
        }
      ],
      "stateMutability": "view",
      "type": "function"
    },
    {
      "inputs": [
        {
          "internalType": "uint256",
          "name": "amount",
          "type": "uint256"
        }
      ],
      "name": "rate",
      "outputs": [
        {
          "internalType": "uint256",
          "name": "",
          "type": "uint256"
        }
      ],
      "stateMutability": "pure",
      "type": "function"
    },
    {
      "inputs": [
        {
          "internalType": "string",
          "name": "newMessage",
          "type": "string"
        }
      ],
      "name": "setMessage",
      "outputs": [],
      "stateMutability": "nonpayable",
      "type": "function"
    }
  ],
  "bytecode": "0x60806040526040518060400160405280600681526020017f68656c6c6f2100000000000000000000000000000000000000000000000000008152506000908051906020019061004f929190610062565b5034801561005c57600080fd5b50610166565b82805461006e90610105565b90600052602060002090601f01602090048101928261009057600085556100d7565b82601f106100a957805160ff19168380011785556100d7565b828001600101855582156100d7579182015b828111156100d65782518255916020019190600101906100bb565b5b5090506100e491906100e8565b5090565b5b808211156101015760008160009055506001016100e9565b5090565b6000600282049050600182168061011d57607f821691505b6020821081141561013157610130610137565b5b50919050565b7f4e487b7100000000000000000000000000000000000000000000000000000000600052602260045260246000fd5b61064e806101756000396000f3fe608060405234801561001057600080fd5b50600436106100575760003560e01c806312065fe01461005c578063368b87721461007a57806341aec53814610096578063ce6d41de146100b4578063e7ee6ad6146100d2575b600080fd5b610064610102565b60405161007191906103cd565b60405180910390f35b610094600480360381019061008f91906102f9565b61010f565b005b61009e610129565b6040516100ab91906103cd565b60405180910390f35b6100bc610131565b6040516100c991906103ab565b60405180910390f35b6100ec60048036038101906100e7919061033a565b6101c3565b6040516100f991906103cd565b60405180910390f35b6000804790508091505090565b80600090805190602001906101259291906101d9565b5050565b600047905090565b60606000805461014090610500565b80601f016020809104026020016040519081016040528092919081815260200182805461016c90610500565b80156101b95780601f1061018e576101008083540402835291602001916101b9565b820191906000526020600020905b81548152906001019060200180831161019c57829003601f168201915b5050505050905090565b60006003826101d2919061045a565b9050919050565b8280546101e590610500565b90600052602060002090601f016020900481019282610207576000855561024e565b82601f1061022057805160ff191683800117855561024e565b8280016001018555821561024e579182015b8281111561024d578251825591602001919060010190610232565b5b50905061025b919061025f565b5090565b5b80821115610278576000816000905550600101610260565b5090565b600061028f61028a8461040d565b6103e8565b9050828152602081018484840111156102a757600080fd5b6102b28482856104be565b509392505050565b600082601f8301126102cb57600080fd5b81356102db84826020860161027c565b91505092915050565b6000813590506102f381610601565b92915050565b60006020828403121561030b57600080fd5b600082013567ffffffffffffffff81111561032557600080fd5b610331848285016102ba565b91505092915050565b60006020828403121561034c57600080fd5b600061035a848285016102e4565b91505092915050565b600061036e8261043e565b6103788185610449565b93506103888185602086016104cd565b610391816105f0565b840191505092915050565b6103a5816104b4565b82525050565b600060208201905081810360008301526103c58184610363565b905092915050565b60006020820190506103e2600083018461039c565b92915050565b60006103f2610403565b90506103fe8282610532565b919050565b6000604051905090565b600067ffffffffffffffff821115610428576104276105c1565b5b610431826105f0565b9050602081019050919050565b600081519050919050565b600082825260208201905092915050565b6000610465826104b4565b9150610470836104b4565b9250817fffffffffffffffffffffffffffffffffffffffffffffffffffffffffffffffff04831182151516156104a9576104a8610563565b5b828202905092915050565b6000819050919050565b82818337600083830152505050565b60005b838110156104eb5780820151818401526020810190506104d0565b838111156104fa576000848401525b50505050565b6000600282049050600182168061051857607f821691505b6020821081141561052c5761052b610592565b5b50919050565b61053b826105f0565b810181811067ffffffffffffffff8211171561055a576105596105c1565b5b80604052505050565b7f4e487b7100000000000000000000000000000000000000000000000000000000600052601160045260246000fd5b7f4e487b7100000000000000000000000000000000000000000000000000000000600052602260045260246000fd5b7f4e487b7100000000000000000000000000000000000000000000000000000000600052604160045260246000fd5b6000601f19601f8301169050919050565b61060a816104b4565b811461061557600080fd5b5056fea2646970667358221220895284479de3d242e01789a95e3d228a392be8a285d8bfeb2a9fbc85066553a664736f6c63430008040033",
  "linkReferences": {},
  "deployedLinkReferences": {}
}